:020000040800F2
:10000000005000208D0800085D0B00085F0B000801
:10001000630B0008650B0008670B00080000000078
:100020000000000000000000000000006B0B000852
:10003000690B0008000000006D0B0008710B000840
:10004000E90B0008EB0B0008ED0B0008EF0B0008B4
:10005000F10B0008F30B0008F50B0008F70B000884
:10006000F90B0008FB0B0008FD0B0008FF0B000854
:10007000010C0008030C0008050C0008070C000820
:10008000090C00080B0C00080D0C00080F0C0008F0
:10009000110C0008130C0008150C0008170C0008C0
:1000A000190C00081B0C00081D0C00081F0C000890
:1000B000210C0008230C0008250C0008270C000860
:1000C000290C00082B0C00082D0C00082F0C000830
:1000D000C5060008310C0008610C0008630C00081C
:1000E000650C0008670C0008690C00086B0C000820
:1000F0006D0C00086F0C0008710C0008730C0008F0
:10010000750C0008770C0008790C00087B0C0008BF
:100110007D0C00087F0C0008810C0008830C00088F
:10012000850C0008870C0008890C00088B0C00085F
:10013000F0B5002989B005DA4942002802DA4042C8
:100140002D2500E00025002AC9B202DA52423026ED
:1001500000E02026142A3FDC04464FF0000CB4FBDC
:10016000F1F701FB1740C0B2092801D90730C0B22E
:1001700008AF674430300CF1010CB4FBF1F407F820
:10018000140C5FFA8CFC002CE9D13DB108A9614444
:1001900001F8145C0CF101045FFA84FC9445BEBFC5
:1001A00008AF07EB0C0101F8146CF3DB0CF1FF3224
:1001B000D0B20B4C0146002208AF7E18D51816F8B5
:1001C000146C0139EDB282426655C9B202D2571C95
:1001D000FAB2F1E76344DBB2184609B0F0BD00BFE4
:1001E0001802002038B5134D2A8892B2DAB1124CA9
:1001F000DFF848E0238812489AB21EF8021001F096
:100200008EFA2188481C1FFA80FCA4F800C02B88B5
:100210005A1E91B22980208883B2B3F5007F07D39C
:100220000020208004E0064840F2277101F05CFACB
:1002300038BD00BF18030020160000201800002061
:1002400000380140002210B540F2277104461248E0
:1002500001F04AFA114BDFF848C01A8891B20CF845
:1002600001401888DFF83CC0421C91B21980BCF8EC
:100270000000421C91B2ACF80010188882B2B2F5AE
:10028000007F01D300201880034840F2277101222B
:1002900001F02AFA10BD00BF003801401400002010
:1002A000180000201803002008B5FFF7CBFF08BD99
:1002B00010B5044601E0FFF7C5FF14F8010B002854
:1002C000F9D110BD0FB4F7B508AB53F8044B0A26AB
:1002D00001933E4D00236BE00134252A35D114F8FB
:1002E000010B302803D114F8010B012100E000219B
:1002F000002205E08018303806FB020214F8010BDA
:10030000A0F1300CBCF1090FF4D901B152426C28B4
:1003100003D114F8010B012700E0002700284AD080
:1003200073280CD1019A111D0191126802E0E95461
:100330000133DBB212F8011B0029F8D138E0632841
:1003400007D10198021D01920268591CEA54CBB2F0
:100350002EE0642814BF00210121692808BF41F064
:10036000010175280CBF4FF00A0C4FF0000C00295A
:1003700018BF6FF0090C582814BF4FF0000E4FF053
:10038000010E782808BF4EF0010EBEF1000F0CBF21
:1003900061461021622801D009B90CE002210198C0
:1003A00000F1040ECDF804E00068FFF7C1FE03463B
:1003B0002278002A90D1054C00222046E254FFF713
:1003C00077FF2046BDE8FE4004B0704718020020C9
:1003D00070B5012186B04FF4804000F045FF032145
:1003E0004FF4C0608DF8161004AC00F04FFC0226EC
:1003F00025208DF810008DF8116020460126182563
:100400008DF812608DF8136000F04AFC2623204618
:100410008DF810300DEB05048DF8116000F040FCF4
:100420004FF4007C8DF817501C4D24F804CD28465D
:10043000214600F0D1FD4FF480610422ADF8141084
:10044000284621468DF8172005F5405500F0C4FDDB
:100450004FF4E13000240C23009069462846ADF8A3
:100460000A30ADF80440ADF80640ADF80840ADF8EC
:100470000C4001F0DDF82846314601F027F9284606
:10048000324640F2255101F02FF9284640F22771FB
:10049000224601F029F906B070BD00BF00080140F6
:1004A00070B586B0012406A9032000258DF816003A
:1004B00021F8044D1E488DF8175000F08DFD2046A0
:1004C000214600F0C3FE4FF40070214600F0CCFE40
:1004D0004FF4602317486946029300958DF8044055
:1004E0008DF8054003958DF8104000F00BFC224676
:1004F00007231048294600F05FFC0E48214600F013
:1005000035FC0C48214600F027FC0A48264600F03E
:1005100037FC084800F039FC0028FAD1054800F003
:1005200038FC044800F03AFC0028FAD106B070BD4F
:100530000008014000240140014B188880B2704738
:100540009C03002010B51D4A00248CB0234632F8CD
:100550001400013481B25B18402CF8D14FF4607064
:10056000B3FBF0F1DFF858E01FFA81FCAEF800C0F1
:10057000144800F077FC80200118134A0F4B01F556
:10058000407C019202930CF53052002306900791B3
:100590000C4801A903930593CDF820C009930A9252
:1005A0000B93049400F0CAFC0121064800F0F4FC0F
:1005B0000648012100F0F6FB0CB010BD1C03002022
:1005C0009C030020080002404C240140002401400C
:1005D00070B5012188B04FF4804000F053FE364DD5
:1005E000032307AC8DF81E304AF20003ADF81C302F
:1005F0002846482321468DF81F3000F0EDFC1823D3
:100600008DF81F3028464FF480432146ADF81C304A
:1006100000F0E2FC02238DF81E300E33A5F55445A0
:100620008DF81F30214680232448ADF81C3000F09F
:10063000D3FC2846002100F08DFE4FF40073002407
:10064000ADF80E302846072301A9ADF81430ADF8F7
:100650000440ADF80640ADF80840ADF80A40ADF8EA
:100660000C40ADF81040ADF8124000F045FE2846B1
:10067000214600F08FFE0121284600F06BFE4FF46A
:10068000A06000F003FB26462423013406A88DF861
:1006900018308DF819408DF81A608DF81B4000F065
:1006A000FFFA0748FFF70EFE28466021224600F0B9
:1006B0005FFE08B070BD00BF000C014000080140A3
:1006C0007817000838B54C4D6021284600F070FEC0
:1006D000012840F0908028466021AC8900F07EFE21
:1006E000464BE4B21A88464892B22146FFF7EAFD2B
:1006F000444B1B780BB9662C0CD042480378012B75
:1007000001D16F2C06D03F4B1A78012A0ED91978E7
:1007100004290BD8DFF8ECE03B4A9EF80000431CAC
:100720005FFA83FC14548EF800C01EE0DFF8D4C0DA
:100730000021DFF8C8E08CF80010BEF80020501C43
:1007400083B2AEF80030BEF800C01FFA8CF10A295F
:100750000BD92E4CDFF8B8E0E06800F4E06343EA20
:100760000E05E560BFF34F8FFEE7264A1178052995
:100770003DD1DFF888E000231370AEF80030224B43
:1007800093F802C00CF00F02012A08D1D8781A7928
:1007900051B200F08DF91F494FF4C8700860DFF8BE
:1007A00068E09EF802C01CF0100F0FD01A494FF4F9
:1007B0000052DFF868E041F2883CA2F5FC50A1F558
:1007C0000063CEF800C04A61186108E012494FF496
:1007D0000052A2F5FC50A1F500630A6158610A4B72
:1007E0000F489978DA781B795BB2FFF76BFDFFF75A
:1007F000A3FE014B988138BD00380040A8030020BB
:100800008D1700089E030020A003002000ED00E0EB
:100810000400FA05CC03002000100140C8030020AA
:100820009E17000808B5104A104B114903E052F812
:10083000040B43F8040B8B42F9D30E4A0E4B0F49BD
:1008400003E052F804CB43F804CB8B42F9D30C4BB2
:100850000C49002201E043F8042B8B42FBD30A4BE6
:100860000BB1AFF3008008BDE417000800000020C2
:1008700014000020F81700081400002014000020C5
:1008800014000020B003002000000000684620F0A3
:1008900007018D4601B5FFF7C5FF00F075F8BDE80B
:1008A000014085467047000013B500F0F3FB4FF49C
:1008B000803000F013FC00F009FD2D4B01280446A8
:1008C000187028D1102000F07BFB022000F06EFB96
:1008D000002000F043FC002000F054FC4FF4806046
:1008E00000F046FC4FF4004000F056FC4FF480301E
:1008F0004FF4E01100F00EFC204600F017FC392008
:1009000000F0CEFC0028FAD0022000F015FC00F028
:100910001DFC0828FBD1174800F048FC164A4FF48C
:100920007A731068B0FBF3FC2CF07F41DFF84CC009
:100930004A1E13480021CCF80420F023CA1D80F879
:100940002330CCF808101C200121CCF8002000F046
:100950008BFC01208DF8060002A913304FF40053E0
:100960008DF8070021F8043D064800F035FB1CBD5A
:10097000B0030020B4030020E017000810E000E0FE
:1009800000ED00E00010014008B5FFF78DFF0A4BB5
:100990004FF400525A61094B4FF47A721A6000F01A
:1009A00013F8FFF715FEFFF77BFDFFF711FD044875
:1009B0000449FFF787FCFEE700100140C803002050
:1009C000B6170008C517000870B5012088B00146A9
:1009D00000F04AFC012008AC06250146334E00F029
:1009E00051FC24F8045D02238DF81E303046163386
:1009F00021468DF81F3000F0EFFA78211022ADF873
:100A00001C103046214604AE8DF81F2000F0E4FA99
:100A1000304600F0B5FD4FF4B47000243146ADF817
:100A200014004FF08040ADF81050ADF81640ADF80E
:100A3000124000F0DDFC684600F0ABFD01266023AB
:100A400069464FF08040ADF80030ADF80260ADF877
:100A50000640ADF8084000F0F5FC08214FF080405A
:100A600000F0BDFD224604214FF0804000F0CCFD97
:100A700069464FF0804000F035FD08214FF080407E
:100A800000F0B8FD082122464FF0804000F0BCFD88
:100A900031464FF0804000F094FD4FF080403146E9
:100AA0006D4600F080FD08B070BD00BF0008014039
:100AB000022838B50A46054642D881EAE170A0EB23
:100AC000E1704FF4B4714143642391FBF3F1D40F0F
:100AD000CDB91AB94FF08040042108E089B24FF037
:100AE000804000F0A1FD4FF080400421012200F081
:100AF0008BFD14484021224600F0C7FA84F0010221
:100B0000104820211AE0012D1AD11AB94FF0804067
:100B1000082108E089B24FF0804000F087FD4FF0D7
:100B2000804008212A4600F06FFD06480821224631
:100B300000F0ABFA034884F00102102100F0A5FA9E
:100B400038BD00BF000801400020014608B5FFF78E
:100B5000AFFF01200021FFF7ABFF08BD704700BFCA
:100B6000FDE7FEE7FEE7FEE77047704770470000CD
:100B700008B5194B1968481C1860184B1A6832B12F
:100B80001968481E18601A680AB9FFF7DDFF144B90
:100B90001A68A2B1D3F800C0BCF1010F08D1114905
:100BA0004FF40052A2F5FC50A1F500630A615861B0
:100BB000DFF82CC0DCF80030581ECCF80000064BE3
:100BC0004FF47A701A68B2FBF0FC00FB1C2109B9E3
:100BD000FFF7B8FC08BD00BFAC030020CC03002029
:100BE000C8030020001001407047704770477047ED
:100BF000704770477047704770477047704770473D
:100C0000704770477047704770477047704770472C
:100C1000704770477047704770477047704770471C
:100C2000704770477047704770477047704770470C
:100C300008B50A4840F2255100F079FD28B107486F
:100C400000F071FDC0B2FFF72FFB044840F227719E
:100C500000F06DFD08B1FFF7C5FA08BD003801408E
:100C600070477047704770477047704770477047CC
:100C700070477047704770477047704770477047BC
:100C800070477047704770477047704740F0BE61CB
:100C9000024B41F42020D860704700BF00ED00E017
:100CA000C2780378FAB1DFF854C0DCF80C1090F881
:100CB00001C0CA43C2F30222C2F104010CFA01FCD2
:100CC0000F21D1408078014041EA0C020C4811010B
:100CD000C9B21A1882F800130120590903F01F0342
:100CE00010FA03F306E05909012003F01F0310FA7C
:100CF00003F32031024A42F82130704700ED00E052
:100D000000E100E0D0F804C00A682CF4702323F45A
:100D1000807391F804C0134343EA0C224260CB680D
:100D20008A68D0F808C01A430A4B0CEA030391F80A
:100D300005C042EA030343EA4C028260097CD0F812
:100D40002CC04B1E2CF47002D9B242EA0153C3628C
:100D5000704700BFFDF7F1FF19B1836843F001034D
:100D600002E0816821F001038360704719B1836854
:100D700043F4807302E0816821F4807383607047DC
:100D8000816841F00803836070478068C0F3C00049
:100D90007047816841F00403836070478068C0F346
:100DA0008000704719B1836843F4A00302E08168B2
:100DB00021F4A00383607047092930B512D94FF0A0
:100DC000030404FB01FC0724ACF11E0C04FA0CF430
:100DD00003FA0CF3C56825EA040444EA030CC0F8DE
:100DE0000CC00EE04FF0030C0CFB01FC072404FACE
:100DF0000CF403FA0CFC056925EA040444EA0C032C
:100E00000361062A0DD80523013A5A431A33934049
:100E10009140D0F834C02CEA030343EA0102426354
:100E20001EE00C2A0ED805235A431A33233A934066
:100E300011FA02F2D0F830C02CEA030C4CEA02019D
:100E400001630DE005235A431A33413A934011FAE6
:100E500002F2D0F82CC02CEA030C4CEA0201C16269
:100E600030BD00000268002322F001010160036030
:100E700043608360C360254B98421FD0244B984247
:100E800024D0244B984229D0234B98422ED0234B78
:100E9000984234D0224B984204D16C3B586840F4BD
:100EA000700230E01F4B984205D1803BD3F804C05C
:100EB0004CF0706227E01C4B984204D1083B596803
:100EC00041F00F021FE0194B984204D11C3B5A68B5
:100ED00042F0F00217E0164B984204D1303B5868BC
:100EE00040F470620FE0134B984205D1443BD3F8B5
:100EF00004C04CF4704206E00F4B984204D1583BBA
:100F0000596841F470225A60704700BF08000240DF
:100F10001C000240300002404400024058000240E1
:100F20006C00024080000240080402401C040240A1
:100F30003004024044040240580402400268D1F8E0
:100F400020C022F4FE438A6823F0F0034CEA020238
:100F5000D1F810C042EA0C02D1F814C042EA0C02E7
:100F6000D1F818C042EA0C02D1F81CC042EA0C02C7
:100F7000D1F824C042EA0C02D1F828C042EA0C029F
:100F800042EA03030360D1F80CC00A684B68C0F85A
:100F900004C08260C360704719B1036843F0010365
:100FA00002E0016821F0010303607047034B1968F8
:100FB00001F0380210431860704700BF0020024063
:100FC000044BD3F800C02CF0100119601A681043CC
:100FD0001860704700200240F7B5CF7817F0100F67
:100FE00007F00F021CBF8F783A430F8817F0FF0FEE
:100FF00022D0D0F800C000230197012414FA03F591
:10100000019E05EA0604AC4211D19E000F2717FA93
:1010100006F512FA06F62CEA050CCD784CEA060C19
:10102000282D08BF446102D0482D08BF0461013358
:10103000082BE2D1C0F800C00F88FF2F24D9D0F8C8
:1010400004C00023019203F10804012212FA04F5FE
:1010500005EA0704AC4212D19E000E3212FA06F5E0
:10106000019A2CEA050C12FA06F6CD784CEA060C29
:10107000282D08BF446102D0482D08BF0461013308
:10108000082BE0D1C0F804C0FEBD0AB1016100E048
:10109000416170470F4B10481A6842F0010CC3F8C9
:1010A00000C0596801EA00025A60D3F800C02CF071
:1010B000847121F4803018601A6822F4802CC3F8FF
:1010C00000C059684FF41F0221F4FE0058609A6076
:1010D000704700BF001002400000FFF80C4BB0F555
:1010E000803F1A6822F4803CC3F800C0196821F4DC
:1010F00080221A6003D0B0F5802F08D103E0186871
:1011000040F4803202E0196841F4A0221A6070476E
:1011100000100240044BD3F804C02CF47C1210439E
:1011200008435860704700BF00100240014B186030
:10113000704700BF60004242034B596821F0030230
:1011400010435860704700BF00100240024B5868BF
:1011500000F00C00704700BF00100240034B5968BC
:1011600021F0F00210435860704700BF00100240A9
:10117000034B596821F4E06210435860704700BF88
:1011800000100240034B596821F4605242EAC0004B
:101190005860704700100240034B596821F44042E8
:1011A00010435860704700BF00100240224B5A683D
:1011B00002F00C02042A14D0082A12D1D3F804C079
:1011C0005968CCF38342023211F4803F05D05B684A
:1011D00013F4003F08BF194B00D0194B5A4302606B
:1011E00001E0164B0360144BD0F800C05968C1F3FE
:1011F000031214498A5C2CFA02F24260D3F804C04C
:10120000CCF3022C11F80CC022FA0CFCC0F808C078
:10121000D3F804C0CCF3C22C11F80C10CA40C26041
:10122000D3F804C00849CCF3813311F803C0B2FBF2
:10123000FCF10161704700BF0010024000127A000B
:1012400000093D00040000200000002019B1054BFA
:101250005A69104303E0034B596921EA00005861C1
:10126000704700BF0010024019B1054B9A69104346
:1012700003E0034B996921EA00009861704700BFC1
:101280000010024019B1054BDA69104303E0034B2B
:10129000D96921EA0000D861704700BF0010024000
:1012A0004309012B04BF084B1B6805D0022B0BBF61
:1012B000054B054B1B6A5B6A00F01F0133FA01F016
:1012C00000F00100704700BF0010024007B5002386
:1012D00001933120FFF7E4FF019B5A1C0192019911
:1012E000B1F5A06F01D00028F3D03120FFF7D8FF6F
:1012F000003818BF01200EBDB1F802C00B8802886B
:101300004CEA0303B1F804C002F4415243EA0C036F
:10131000B1F806C043EA0C03B1F808C043EA0C0375
:10132000B1F80AC043EA0C03B1F80CC043EA0C035D
:10133000B1F80EC043EA0C0C42EA0C0293B20380EF
:10134000B0F81CC02CF4006213041A0C0B8A8283C0
:101350000382704721B101888BB243F0400305E05E
:10136000B0F800C02CF040031A04130C038070473F
:101370000909012313FA01F189B22AB1B0F804C0B6
:101380001FFA8CF2114303E0828893B223EA010131
:101390008180704721B101888BB243F4005305E08E
:1013A000B0F800C02CF400531A04130C03807047EB
:1013B000B0F804C0038901F00F0298B2012313FAB8
:1013C00002F210401FFA8CFC07D0080913FA00F152
:1013D0001CEA010F0CBF00200120704701F00F0133
:1013E000012313FA01F2D1438BB20381704700004D
:1013F000028802F08F030380B0F800C0CA881FFA89
:101400008CF313434A8813431FFA83FC8A88A0F89D
:1014100000C00B88DFF824C08285094A0385604537
:1014200014BF00230123904208BF43F001030BB116
:10143000097A018601238382704700BF002C014096
:1014400000340140B0F820C030B52CF01004230463
:101450001D0C0584058C8288048B92B224F4E6432B
:101460004FEA034C0C884FEA1C4343EA042C25F056
:1014700020031C040D89230C4C8843EA051545EA1A
:101480000413164C164DA04214BF00240124A84298
:1014900008BF44F001041FFA8CFC9BB2BCB14C891C
:1014A00023F0800343EA04134FF6BF7403EA0404F5
:1014B0008B8844EA031347F2FF3402EA04048A8962
:1014C0009BB244EA8204CA8944EA820292B2C98881
:1014D0008280A0F818C00187038430BD002C014031
:1014E00000340140B0F820C030B52CF480742304DF
:1014F0001D0C0584058C8288848B92B224F0730CB9
:101500004FEA0C430C884FEA134C25F400734CEA65
:10151000040C0D891C04230C4C8843EA052545EA7C
:101520000423154C154DA04214BF00240124A842E9
:1015300008BF44F001049BB2BCB14C8923F40063A2
:1015400043EA04234FF6FF3403EA04048B8844EA99
:10155000032344F6FF7402EA04048A899BB244EA36
:101560000214CA8944EA021292B2C9888280A0F8A1
:101570001CC08187038430BD002C01400034014031
:1015800000234FF0FF3181800380C38043800372CA
:1015900070470023038043808380C380038143819D
:1015A0008381C381704721B101888BB243F001036D
:1015B00005E0B0F800C02CF001039A05930D0380FC
:1015C000704721B101888BB243F0800305E0B0F889
:1015D00000C02CF080039A05930D03807047B0F88B
:1015E00018C02CF4006213041A0C42EA01218BB2D9
:1015F00003837047B0F81CC02CF0080213041A0CC7
:1016000041EA02038383704701238B408A40B0F88C
:1016100020C01FFA8CFC2CEA030CA0F820C0038C1D
:101620001A4391B2018470470187704781877047E0
:1016300030B5B0F810E004462EF440520D461004C8
:10164000C988030C0B432382A289B5F808C0B5F8FA
:1016500004E022F4B0506A8920F00C014CEA0E003C
:1016600010430B041B0C81B241EA030CA4F80CC01C
:10167000B4F814E0AB892EF440721004010C194345
:1016800087B0A18201A8FFF791FD0F4B28689C420B
:101690000CBF049B039B192253438100B3FBF1FC55
:1016A0006423BCFBF3F21201100903FB10C1080113
:1016B0003230B0FBF3F101F00F0343EA020082B2D3
:1016C000228107B030BD00BF0038014021B18189BF
:1016D0008BB243F4005305E0B0F80CC02CF4005377
:1016E0001A04130C83817047C1F342134FF0010CAD
:1016F00001F01F0163450CFA01F101D10C3004E047
:10170000022B01D1103000E014301AB1036843EA13
:10171000010102E0026822EA010101607047CA0586
:10172000D10D818070478188C805C00D704701F0D8
:101730001F030122C1F3421C9A40BCF1010F08BFF4
:10174000838904D0BCF1020F0CBF038A838A9BB249
:1017500002EA0303090A012212FA01F1B0F800C0FB
:101760001FFA8CF001420CBF00200120002B0CBF9F
:10177000002000F0010070477370693220737461BB
:10178000727420696E74657272757074007370691A
:10179000323A2530327820202025640A0D007370FB
:1017A000693220636D643A5B25642C2025642C200B
:1017B00025645D0A0D0073746172742076312E30D9
:1017C0002025730A00536174205365702031352041
:1017D00031383A30313A3439203230313800000073
:0417E00000A24A0415
:1017E40002040608000000000102030401020304CD
:0417F40006070809D3
:0400000508000000EF
:00000001FF
